{
  "_format": "hh-sol-artifact-1",
  "contractName": "WaifuWorld",
  "sourceName": "contracts/WaifuWorld.sol",
  "abi": [
    {
      "inputs": [
        {
          "internalType": "string",
          "name": "name",
          "type": "string"
        },
        {
          "internalType": "string",
          "name": "symbol",
          "type": "string"
        }
      ],
      "stateMutability": "nonpayable",
      "type": "constructor"
    },
    {
      "anonymous": false,
      "inputs": [
        {
          "indexed": true,
          "internalType": "address",
          "name": "owner",
          "type": "address"
        },
        {
          "indexed": true,
          "internalType": "address",
          "name": "approved",
          "type": "address"
        },
        {
          "indexed": true,
          "internalType": "uint256",
          "name": "tokenId",
          "type": "uint256"
        }
      ],
      "name": "Approval",
      "type": "event"
    },
    {
      "anonymous": false,
      "inputs": [
        {
          "indexed": true,
          "internalType": "address",
          "name": "owner",
          "type": "address"
        },
        {
          "indexed": true,
          "internalType": "address",
          "name": "operator",
          "type": "address"
        },
        {
          "indexed": false,
          "internalType": "bool",
          "name": "approved",
          "type": "bool"
        }
      ],
      "name": "ApprovalForAll",
      "type": "event"
    },
    {
      "anonymous": false,
      "inputs": [
        {
          "indexed": true,
          "internalType": "address",
          "name": "previousOwner",
          "type": "address"
        },
        {
          "indexed": true,
          "internalType": "address",
          "name": "newOwner",
          "type": "address"
        }
      ],
      "name": "OwnershipTransferred",
      "type": "event"
    },
    {
      "anonymous": false,
      "inputs": [
        {
          "indexed": false,
          "internalType": "uint256",
          "name": "tokenId",
          "type": "uint256"
        },
        {
          "indexed": false,
          "internalType": "address",
          "name": "owner",
          "type": "address"
        },
        {
          "indexed": false,
          "internalType": "uint256",
          "name": "first_encounter",
          "type": "uint256"
        }
      ],
      "name": "TokenMinted",
      "type": "event"
    },
    {
      "anonymous": false,
      "inputs": [
        {
          "indexed": true,
          "internalType": "address",
          "name": "from",
          "type": "address"
        },
        {
          "indexed": true,
          "internalType": "address",
          "name": "to",
          "type": "address"
        },
        {
          "indexed": true,
          "internalType": "uint256",
          "name": "tokenId",
          "type": "uint256"
        }
      ],
      "name": "Transfer",
      "type": "event"
    },
    {
      "inputs": [],
      "name": "CURRENT_PRICE",
      "outputs": [
        {
          "internalType": "uint256",
          "name": "",
          "type": "uint256"
        }
      ],
      "stateMutability": "view",
      "type": "function"
    },
    {
      "inputs": [],
      "name": "MAX_PURCHASE",
      "outputs": [
        {
          "internalType": "uint256",
          "name": "",
          "type": "uint256"
        }
      ],
      "stateMutability": "view",
      "type": "function"
    },
    {
      "inputs": [],
      "name": "MAX_TOKENS",
      "outputs": [
        {
          "internalType": "uint256",
          "name": "",
          "type": "uint256"
        }
      ],
      "stateMutability": "view",
      "type": "function"
    },
    {
      "inputs": [],
      "name": "PROVENANCE",
      "outputs": [
        {
          "internalType": "string",
          "name": "",
          "type": "string"
        }
      ],
      "stateMutability": "view",
      "type": "function"
    },
    {
      "inputs": [
        {
          "internalType": "address",
          "name": "to",
          "type": "address"
        },
        {
          "internalType": "uint256",
          "name": "tokenId",
          "type": "uint256"
        }
      ],
      "name": "approve",
      "outputs": [],
      "stateMutability": "nonpayable",
      "type": "function"
    },
    {
      "inputs": [
        {
          "internalType": "address",
          "name": "owner",
          "type": "address"
        }
      ],
      "name": "balanceOf",
      "outputs": [
        {
          "internalType": "uint256",
          "name": "",
          "type": "uint256"
        }
      ],
      "stateMutability": "view",
      "type": "function"
    },
    {
      "inputs": [
        {
          "internalType": "uint256",
          "name": "tokenId",
          "type": "uint256"
        }
      ],
      "name": "getApproved",
      "outputs": [
        {
          "internalType": "address",
          "name": "",
          "type": "address"
        }
      ],
      "stateMutability": "view",
      "type": "function"
    },
    {
      "inputs": [
        {
          "internalType": "uint256",
          "name": "tokenId",
          "type": "uint256"
        }
      ],
      "name": "getWaifuWorldDetail",
      "outputs": [
        {
          "components": [
            {
              "internalType": "uint256",
              "name": "first_encounter",
              "type": "uint256"
            }
          ],
          "internalType": "struct WaifuWorld.WaifuWorldDetail",
          "name": "detail",
          "type": "tuple"
        }
      ],
      "stateMutability": "view",
      "type": "function"
    },
    {
      "inputs": [
        {
          "internalType": "address",
          "name": "owner",
          "type": "address"
        },
        {
          "internalType": "address",
          "name": "operator",
          "type": "address"
        }
      ],
      "name": "isApprovedForAll",
      "outputs": [
        {
          "internalType": "bool",
          "name": "",
          "type": "bool"
        }
      ],
      "stateMutability": "view",
      "type": "function"
    },
    {
      "inputs": [],
      "name": "isConsulationActive",
      "outputs": [
        {
          "internalType": "bool",
          "name": "",
          "type": "bool"
        }
      ],
      "stateMutability": "view",
      "type": "function"
    },
    {
      "inputs": [
        {
          "internalType": "uint256",
          "name": "tokenId",
          "type": "uint256"
        }
      ],
      "name": "mintTokenId",
      "outputs": [],
      "stateMutability": "nonpayable",
      "type": "function"
    },
    {
      "inputs": [
        {
          "internalType": "uint256",
          "name": "numberOfTokens",
          "type": "uint256"
        }
      ],
      "name": "mintWaifuWorld",
      "outputs": [],
      "stateMutability": "payable",
      "type": "function"
    },
    {
      "inputs": [],
      "name": "name",
      "outputs": [
        {
          "internalType": "string",
          "name": "",
          "type": "string"
        }
      ],
      "stateMutability": "view",
      "type": "function"
    },
    {
      "inputs": [],
      "name": "owner",
      "outputs": [
        {
          "internalType": "address",
          "name": "",
          "type": "address"
        }
      ],
      "stateMutability": "view",
      "type": "function"
    },
    {
      "inputs": [
        {
          "internalType": "uint256",
          "name": "tokenId",
          "type": "uint256"
        }
      ],
      "name": "ownerOf",
      "outputs": [
        {
          "internalType": "address",
          "name": "",
          "type": "address"
        }
      ],
      "stateMutability": "view",
      "type": "function"
    },
    {
      "inputs": [],
      "name": "renounceOwnership",
      "outputs": [],
      "stateMutability": "nonpayable",
      "type": "function"
    },
    {
      "inputs": [],
      "name": "reserveTokens",
      "outputs": [],
      "stateMutability": "nonpayable",
      "type": "function"
    },
    {
      "inputs": [
        {
          "internalType": "address",
          "name": "from",
          "type": "address"
        },
        {
          "internalType": "address",
          "name": "to",
          "type": "address"
        },
        {
          "internalType": "uint256",
          "name": "tokenId",
          "type": "uint256"
        }
      ],
      "name": "safeTransferFrom",
      "outputs": [],
      "stateMutability": "nonpayable",
      "type": "function"
    },
    {
      "inputs": [
        {
          "internalType": "address",
          "name": "from",
          "type": "address"
        },
        {
          "internalType": "address",
          "name": "to",
          "type": "address"
        },
        {
          "internalType": "uint256",
          "name": "tokenId",
          "type": "uint256"
        },
        {
          "internalType": "bytes",
          "name": "_data",
          "type": "bytes"
        }
      ],
      "name": "safeTransferFrom",
      "outputs": [],
      "stateMutability": "nonpayable",
      "type": "function"
    },
    {
      "inputs": [],
      "name": "saleIsActive",
      "outputs": [
        {
          "internalType": "bool",
          "name": "",
          "type": "bool"
        }
      ],
      "stateMutability": "view",
      "type": "function"
    },
    {
      "inputs": [
        {
          "internalType": "address",
          "name": "operator",
          "type": "address"
        },
        {
          "internalType": "bool",
          "name": "approved",
          "type": "bool"
        }
      ],
      "name": "setApprovalForAll",
      "outputs": [],
      "stateMutability": "nonpayable",
      "type": "function"
    },
    {
      "inputs": [
        {
          "internalType": "string",
          "name": "BaseURI",
          "type": "string"
        }
      ],
      "name": "setBaseURI",
      "outputs": [],
      "stateMutability": "nonpayable",
      "type": "function"
    },
    {
      "inputs": [
        {
          "internalType": "bool",
          "name": "newState",
          "type": "bool"
        }
      ],
      "name": "setConsulationState",
      "outputs": [],
      "stateMutability": "nonpayable",
      "type": "function"
    },
    {
      "inputs": [
        {
          "internalType": "uint256",
          "name": "currentPrice",
          "type": "uint256"
        }
      ],
      "name": "setCurrentPrice",
      "outputs": [],
      "stateMutability": "nonpayable",
      "type": "function"
    },
    {
      "inputs": [
        {
          "internalType": "uint256",
          "name": "maxTokens",
          "type": "uint256"
        }
      ],
      "name": "setMaxTokens",
      "outputs": [],
      "stateMutability": "nonpayable",
      "type": "function"
    },
    {
      "inputs": [
        {
          "internalType": "string",
          "name": "provenanceHash",
          "type": "string"
        }
      ],
      "name": "setProvenanceHash",
      "outputs": [],
      "stateMutability": "nonpayable",
      "type": "function"
    },
    {
      "inputs": [
        {
          "internalType": "bool",
          "name": "newState",
          "type": "bool"
        }
      ],
      "name": "setSaleState",
      "outputs": [],
      "stateMutability": "nonpayable",
      "type": "function"
    },
    {
      "inputs": [
        {
          "internalType": "bytes4",
          "name": "interfaceId",
          "type": "bytes4"
        }
      ],
      "name": "supportsInterface",
      "outputs": [
        {
          "internalType": "bool",
          "name": "",
          "type": "bool"
        }
      ],
      "stateMutability": "view",
      "type": "function"
    },
    {
      "inputs": [],
      "name": "symbol",
      "outputs": [
        {
          "internalType": "string",
          "name": "",
          "type": "string"
        }
      ],
      "stateMutability": "view",
      "type": "function"
    },
    {
      "inputs": [
        {
          "internalType": "uint256",
          "name": "index",
          "type": "uint256"
        }
      ],
      "name": "tokenByIndex",
      "outputs": [
        {
          "internalType": "uint256",
          "name": "",
          "type": "uint256"
        }
      ],
      "stateMutability": "view",
      "type": "function"
    },
    {
      "inputs": [
        {
          "internalType": "address",
          "name": "owner",
          "type": "address"
        },
        {
          "internalType": "uint256",
          "name": "index",
          "type": "uint256"
        }
      ],
      "name": "tokenOfOwnerByIndex",
      "outputs": [
        {
          "internalType": "uint256",
          "name": "",
          "type": "uint256"
        }
      ],
      "stateMutability": "view",
      "type": "function"
    },
    {
      "inputs": [
        {
          "internalType": "uint256",
          "name": "tokenId",
          "type": "uint256"
        }
      ],
      "name": "tokenURI",
      "outputs": [
        {
          "internalType": "string",
          "name": "",
          "type": "string"
        }
      ],
      "stateMutability": "view",
      "type": "function"
    },
    {
      "inputs": [],
      "name": "totalSupply",
      "outputs": [
        {
          "internalType": "uint256",
          "name": "",
          "type": "uint256"
        }
      ],
      "stateMutability": "view",
      "type": "function"
    },
    {
      "inputs": [
        {
          "internalType": "address",
          "name": "from",
          "type": "address"
        },
        {
          "internalType": "address",
          "name": "to",
          "type": "address"
        },
        {
          "internalType": "uint256",
          "name": "tokenId",
          "type": "uint256"
        }
      ],
      "name": "transferFrom",
      "outputs": [],
      "stateMutability": "nonpayable",
      "type": "function"
    },
    {
      "inputs": [
        {
          "internalType": "address",
          "name": "newOwner",
          "type": "address"
        }
      ],
      "name": "transferOwnership",
      "outputs": [],
      "stateMutability": "nonpayable",
      "type": "function"
    },
    {
      "inputs": [],
      "name": "withdraw",
      "outputs": [],
      "stateMutability": "nonpayable",
      "type": "function"
    }
  ],
  "bytecode": "0x60a06040819052600060808190526200001b91600c916200010b565b506014600d55611f40600e5566b1a2bc2ec50000600f556010805461ffff191690553480156200004a57600080fd5b5060405162002ac938038062002ac98339810160408190526200006d916200025c565b815182908290620000869060009060208501906200010b565b5080516200009c9060019060208401906200010b565b5050506000620000b16200010760201b60201c565b600a80546001600160a01b0319166001600160a01b038316908117909155604051919250906000907f8be0079c531659141344cd1fd0a4f28419497f9722a3daafe3b4186f6b6457e0908290a350505062000316565b3390565b8280546200011990620002c3565b90600052602060002090601f0160209004810192826200013d576000855562000188565b82601f106200015857805160ff191683800117855562000188565b8280016001018555821562000188579182015b82811115620001885782518255916020019190600101906200016b565b50620001969291506200019a565b5090565b5b808211156200019657600081556001016200019b565b600082601f830112620001c2578081fd5b81516001600160401b0380821115620001df57620001df62000300565b6040516020601f8401601f191682018101838111838210171562000207576200020762000300565b60405283825285840181018710156200021e578485fd5b8492505b8383101562000241578583018101518284018201529182019162000222565b838311156200025257848185840101525b5095945050505050565b600080604083850312156200026f578182fd5b82516001600160401b038082111562000286578384fd5b6200029486838701620001b1565b93506020850151915080821115620002aa578283fd5b50620002b985828601620001b1565b9150509250929050565b600281046001821680620002d857607f821691505b60208210811415620002fa57634e487b7160e01b600052602260045260246000fd5b50919050565b634e487b7160e01b600052604160045260246000fd5b6127a380620003266000396000f3fe60806040526004361061020f5760003560e01c806355f804b311610118578063a22cb465116100a0578063c87b56dd1161006f578063c87b56dd146105ba578063e985e9c5146105da578063eb8d2444146105fa578063f2fde38b1461060f578063f47c84c51461062f5761020f565b8063a22cb46514610545578063a50193e614610565578063b88d4fde1461057a578063c4e370951461059a5761020f565b80637146bd08116100e75780637146bd08146104c4578063715018a6146104d95780638da5cb5b146104ee57806395d89b4114610503578063a12292eb146105185761020f565b806355f804b31461044f5780636352211e1461046f5780636373a6b11461048f57806370a08231146104a45761020f565b80632429467b1161019b5780633ccfd60b1161016a5780633ccfd60b146103c55780633f32396b146103da57806342842e0e146103fa5780634b369a611461041a5780634f6ccce71461042f5761020f565b80632429467b1461035d57806326a013dc1461037d57806327ac36c4146103905780632f745c59146103a55761020f565b806310969523116101e257806310969523146102bb57806311e776fe146102db57806318160ddd146102fb57806318b200711461031d57806323b872dd1461033d5761020f565b806301ffc9a71461021457806306fdde031461024a578063081812fc1461026c578063095ea7b314610299575b600080fd5b34801561022057600080fd5b5061023461022f366004611e36565b610644565b6040516102419190611f78565b60405180910390f35b34801561025657600080fd5b5061025f610671565b6040516102419190611f83565b34801561027857600080fd5b5061028c610287366004611eb4565b610703565b6040516102419190611f27565b3480156102a557600080fd5b506102b96102b4366004611df3565b61074f565b005b3480156102c757600080fd5b506102b96102d6366004611e6e565b6107e7565b3480156102e757600080fd5b506102b96102f6366004611eb4565b61083d565b34801561030757600080fd5b50610310610881565b60405161024191906125f2565b34801561032957600080fd5b506102b9610338366004611eb4565b610887565b34801561034957600080fd5b506102b9610358366004611d16565b6108cb565b34801561036957600080fd5b506102b9610378366004611eb4565b610903565b6102b961038b366004611eb4565b6109d0565b34801561039c57600080fd5b506102b9610b15565b3480156103b157600080fd5b506103106103c0366004611df3565b610bd2565b3480156103d157600080fd5b506102b9610c24565b3480156103e657600080fd5b506102b96103f5366004611e1c565b610c92565b34801561040657600080fd5b506102b9610415366004611d16565b610ceb565b34801561042657600080fd5b50610310610d06565b34801561043b57600080fd5b5061031061044a366004611eb4565b610d0c565b34801561045b57600080fd5b506102b961046a366004611e6e565b610d67565b34801561047b57600080fd5b5061028c61048a366004611eb4565b610db9565b34801561049b57600080fd5b5061025f610dee565b3480156104b057600080fd5b506103106104bf366004611cca565b610e7c565b3480156104d057600080fd5b50610310610ec0565b3480156104e557600080fd5b506102b9610ec6565b3480156104fa57600080fd5b5061028c610f4f565b34801561050f57600080fd5b5061025f610f5e565b34801561052457600080fd5b50610538610533366004611eb4565b610f6d565b60405161024191906125e8565b34801561055157600080fd5b506102b9610560366004611dca565b610fbc565b34801561057157600080fd5b5061023461108a565b34801561058657600080fd5b506102b9610595366004611d51565b611098565b3480156105a657600080fd5b506102b96105b5366004611e1c565b6110d1565b3480156105c657600080fd5b5061025f6105d5366004611eb4565b611123565b3480156105e657600080fd5b506102346105f5366004611ce4565b6111a6565b34801561060657600080fd5b506102346111d4565b34801561061b57600080fd5b506102b961062a366004611cca565b6111dd565b34801561063b57600080fd5b5061031061129e565b60006001600160e01b0319821663780e9d6360e01b14806106695750610669826112a4565b90505b919050565b606060008054610680906126a8565b80601f01602080910402602001604051908101604052809291908181526020018280546106ac906126a8565b80156106f95780601f106106ce576101008083540402835291602001916106f9565b820191906000526020600020905b8154815290600101906020018083116106dc57829003601f168201915b5050505050905090565b600061070e826112e4565b6107335760405162461bcd60e51b815260040161072a906123f1565b60405180910390fd5b506000908152600460205260409020546001600160a01b031690565b600061075a82610db9565b9050806001600160a01b0316836001600160a01b0316141561078e5760405162461bcd60e51b815260040161072a9061250a565b806001600160a01b03166107a0611301565b6001600160a01b031614806107bc57506107bc816105f5611301565b6107d85760405162461bcd60e51b815260040161072a90612295565b6107e28383611305565b505050565b6107ef611301565b6001600160a01b0316610800610f4f565b6001600160a01b0316146108265760405162461bcd60e51b815260040161072a9061243d565b805161083990600c906020840190611b87565b5050565b610845611301565b6001600160a01b0316610856610f4f565b6001600160a01b03161461087c5760405162461bcd60e51b815260040161072a9061243d565b600e55565b60085490565b61088f611301565b6001600160a01b03166108a0610f4f565b6001600160a01b0316146108c65760405162461bcd60e51b815260040161072a9061243d565b600f55565b6108dc6108d6611301565b82611373565b6108f85760405162461bcd60e51b815260040161072a9061254b565b6107e28383836113f8565b61090b611301565b6001600160a01b031661091c610f4f565b6001600160a01b0316146109425760405162461bcd60e51b815260040161072a9061243d565b61094b816112e4565b156109685760405162461bcd60e51b815260040161072a9061223d565b426109733383611525565b60408051602080820183528382526000858152600b90915282902090519055517f2d03118aa776f7008445f6ca8490a6782ede2db364d741513555ba656ab1879f906109c4908490339085906125fb565b60405180910390a15050565b60105460ff166109f25760405162461bcd60e51b815260040161072a90612179565b600d54811115610a145760405162461bcd60e51b815260040161072a906121fc565b600e54610a2982610a23610881565b9061153f565b1115610a475760405162461bcd60e51b815260040161072a906120b0565b600f543490610a56908361154b565b1115610a745760405162461bcd60e51b815260040161072a90612385565b42600060015b838111610b0f57610a8e6001610a23610881565b9150600e548211610afd57610aa33383611525565b60408051602080820183528582526000858152600b90915282902090519055517f2d03118aa776f7008445f6ca8490a6782ede2db364d741513555ba656ab1879f90610af4908490339087906125fb565b60405180910390a15b80610b07816126e3565b915050610a7a565b50505050565b610b1d611301565b6001600160a01b0316610b2e610f4f565b6001600160a01b031614610b545760405162461bcd60e51b815260040161072a9061243d565b60016000425b603283116107e257610b6f6001610a23610881565b9150600e548211610bc057610b843383611525565b7f2d03118aa776f7008445f6ca8490a6782ede2db364d741513555ba656ab1879f823383604051610bb7939291906125fb565b60405180910390a15b82610bca816126e3565b935050610b5a565b6000610bdd83610e7c565b8210610bfb5760405162461bcd60e51b815260040161072a90611f96565b506001600160a01b03919091166000908152600660209081526040808320938352929052205490565b610c2c611301565b6001600160a01b0316610c3d610f4f565b6001600160a01b031614610c635760405162461bcd60e51b815260040161072a9061243d565b6040514790339082156108fc029083906000818181858888f19350505050158015610839573d6000803e3d6000fd5b610c9a611301565b6001600160a01b0316610cab610f4f565b6001600160a01b031614610cd15760405162461bcd60e51b815260040161072a9061243d565b601080549115156101000261ff0019909216919091179055565b6107e283838360405180602001604052806000815250611098565b600f5481565b6000610d16610881565b8210610d345760405162461bcd60e51b815260040161072a9061259c565b60088281548110610d5557634e487b7160e01b600052603260045260246000fd5b90600052602060002001549050919050565b610d6f611301565b6001600160a01b0316610d80610f4f565b6001600160a01b031614610da65760405162461bcd60e51b815260040161072a9061243d565b8051610839906011906020840190611b87565b6000818152600260205260408120546001600160a01b0316806106695760405162461bcd60e51b815260040161072a9061233c565b600c8054610dfb906126a8565b80601f0160208091040260200160405190810160405280929190818152602001828054610e27906126a8565b8015610e745780601f10610e4957610100808354040283529160200191610e74565b820191906000526020600020905b815481529060010190602001808311610e5757829003601f168201915b505050505081565b60006001600160a01b038216610ea45760405162461bcd60e51b815260040161072a906122f2565b506001600160a01b031660009081526003602052604090205490565b600d5481565b610ece611301565b6001600160a01b0316610edf610f4f565b6001600160a01b031614610f055760405162461bcd60e51b815260040161072a9061243d565b600a546040516000916001600160a01b0316907f8be0079c531659141344cd1fd0a4f28419497f9722a3daafe3b4186f6b6457e0908390a3600a80546001600160a01b0319169055565b600a546001600160a01b031690565b606060018054610680906126a8565b610f75611c0b565b610f7e826112e4565b610f9a5760405162461bcd60e51b815260040161072a90612267565b506000908152600b602090815260409182902082519182019092529054815290565b610fc4611301565b6001600160a01b0316826001600160a01b03161415610ff55760405162461bcd60e51b815260040161072a90612142565b8060056000611002611301565b6001600160a01b03908116825260208083019390935260409182016000908120918716808252919093529120805460ff191692151592909217909155611046611301565b6001600160a01b03167f17307eab39ab6107e8899845ad3d59bd9653f200f220920489ca2b5937696c318360405161107e9190611f78565b60405180910390a35050565b601054610100900460ff1681565b6110a96110a3611301565b83611373565b6110c55760405162461bcd60e51b815260040161072a9061254b565b610b0f84848484611557565b6110d9611301565b6001600160a01b03166110ea610f4f565b6001600160a01b0316146111105760405162461bcd60e51b815260040161072a9061243d565b6010805460ff1916911515919091179055565b606061112e826112e4565b61114a5760405162461bcd60e51b815260040161072a906124bb565b600061115461158a565b90506000815111611174576040518060200160405280600081525061119f565b8061117e84611599565b60405160200161118f929190611ef8565b6040516020818303038152906040525b9392505050565b6001600160a01b03918216600090815260056020908152604080832093909416825291909152205460ff1690565b60105460ff1681565b6111e5611301565b6001600160a01b03166111f6610f4f565b6001600160a01b03161461121c5760405162461bcd60e51b815260040161072a9061243d565b6001600160a01b0381166112425760405162461bcd60e51b815260040161072a90612033565b600a546040516001600160a01b038084169216907f8be0079c531659141344cd1fd0a4f28419497f9722a3daafe3b4186f6b6457e090600090a3600a80546001600160a01b0319166001600160a01b0392909216919091179055565b600e5481565b60006001600160e01b031982166380ac58cd60e01b14806112d557506001600160e01b03198216635b5e139f60e01b145b806106695750610669826116b4565b6000908152600260205260409020546001600160a01b0316151590565b3390565b600081815260046020526040902080546001600160a01b0319166001600160a01b038416908117909155819061133a82610db9565b6001600160a01b03167f8c5be1e5ebec7d5bd14f71427d1e84f3dd0314c0f7b2291e5b200ac8c7c3b92560405160405180910390a45050565b600061137e826112e4565b61139a5760405162461bcd60e51b815260040161072a906121b0565b60006113a583610db9565b9050806001600160a01b0316846001600160a01b031614806113e05750836001600160a01b03166113d584610703565b6001600160a01b0316145b806113f057506113f081856111a6565b949350505050565b826001600160a01b031661140b82610db9565b6001600160a01b0316146114315760405162461bcd60e51b815260040161072a90612472565b6001600160a01b0382166114575760405162461bcd60e51b815260040161072a906120fe565b6114628383836116cd565b61146d600082611305565b6001600160a01b0383166000908152600360205260408120805460019290611496908490612665565b90915550506001600160a01b03821660009081526003602052604081208054600192906114c490849061261a565b909155505060008181526002602052604080822080546001600160a01b0319166001600160a01b0386811691821790925591518493918716917fddf252ad1be2c89b69c2b068fc378daa952ba7f163c4a11628f55a4df523b3ef91a4505050565b610839828260405180602001604052806000815250611756565b600061119f828461261a565b600061119f8284612646565b6115628484846113f8565b61156e84848484611789565b610b0f5760405162461bcd60e51b815260040161072a90611fe1565b606060118054610680906126a8565b6060816115be57506040805180820190915260018152600360fc1b602082015261066c565b8160005b81156115e857806115d2816126e3565b91506115e19050600a83612632565b91506115c2565b60008167ffffffffffffffff81111561161157634e487b7160e01b600052604160045260246000fd5b6040519080825280601f01601f19166020018201604052801561163b576020820181803683370190505b5090505b84156113f057611650600183612665565b915061165d600a866126fe565b61166890603061261a565b60f81b81838151811061168b57634e487b7160e01b600052603260045260246000fd5b60200101906001600160f81b031916908160001a9053506116ad600a86612632565b945061163f565b6001600160e01b031981166301ffc9a760e01b14919050565b6116d88383836107e2565b6001600160a01b0383166116f4576116ef816118a4565b611717565b816001600160a01b0316836001600160a01b0316146117175761171783826118e8565b6001600160a01b0382166117335761172e81611985565b6107e2565b826001600160a01b0316826001600160a01b0316146107e2576107e28282611a5e565b6117608383611aa2565b61176d6000848484611789565b6107e25760405162461bcd60e51b815260040161072a90611fe1565b600061179d846001600160a01b0316611b81565b1561189957836001600160a01b031663150b7a026117b9611301565b8786866040518563ffffffff1660e01b81526004016117db9493929190611f3b565b602060405180830381600087803b1580156117f557600080fd5b505af1925050508015611825575060408051601f3d908101601f1916820190925261182291810190611e52565b60015b61187f573d808015611853576040519150601f19603f3d011682016040523d82523d6000602084013e611858565b606091505b5080516118775760405162461bcd60e51b815260040161072a90611fe1565b805181602001fd5b6001600160e01b031916630a85bd0160e11b1490506113f0565b506001949350505050565b600880546000838152600960205260408120829055600182018355919091527ff3f7a9fe364faab93b216da50a3214154f22a0a2b415b23a84c8169e8b636ee30155565b600060016118f584610e7c565b6118ff9190612665565b600083815260076020526040902054909150808214611952576001600160a01b03841660009081526006602090815260408083208584528252808320548484528184208190558352600790915290208190555b5060009182526007602090815260408084208490556001600160a01b039094168352600681528383209183525290812055565b60085460009061199790600190612665565b600083815260096020526040812054600880549394509092849081106119cd57634e487b7160e01b600052603260045260246000fd5b9060005260206000200154905080600883815481106119fc57634e487b7160e01b600052603260045260246000fd5b6000918252602080832090910192909255828152600990915260408082208490558582528120556008805480611a4257634e487b7160e01b600052603160045260246000fd5b6001900381819060005260206000200160009055905550505050565b6000611a6983610e7c565b6001600160a01b039093166000908152600660209081526040808320868452825280832085905593825260079052919091209190915550565b6001600160a01b038216611ac85760405162461bcd60e51b815260040161072a906123bc565b611ad1816112e4565b15611aee5760405162461bcd60e51b815260040161072a90612079565b611afa600083836116cd565b6001600160a01b0382166000908152600360205260408120805460019290611b2390849061261a565b909155505060008181526002602052604080822080546001600160a01b0319166001600160a01b03861690811790915590518392907fddf252ad1be2c89b69c2b068fc378daa952ba7f163c4a11628f55a4df523b3ef908290a45050565b3b151590565b828054611b93906126a8565b90600052602060002090601f016020900481019282611bb55760008555611bfb565b82601f10611bce57805160ff1916838001178555611bfb565b82800160010185558215611bfb579182015b82811115611bfb578251825591602001919060010190611be0565b50611c07929150611c1e565b5090565b6040518060200160405280600081525090565b5b80821115611c075760008155600101611c1f565b600067ffffffffffffffff80841115611c4e57611c4e61273e565b604051601f8501601f191681016020018281118282101715611c7257611c7261273e565b604052848152915081838501861015611c8a57600080fd5b8484602083013760006020868301015250509392505050565b80356001600160a01b038116811461066c57600080fd5b8035801515811461066c57600080fd5b600060208284031215611cdb578081fd5b61119f82611ca3565b60008060408385031215611cf6578081fd5b611cff83611ca3565b9150611d0d60208401611ca3565b90509250929050565b600080600060608486031215611d2a578081fd5b611d3384611ca3565b9250611d4160208501611ca3565b9150604084013590509250925092565b60008060008060808587031215611d66578081fd5b611d6f85611ca3565b9350611d7d60208601611ca3565b925060408501359150606085013567ffffffffffffffff811115611d9f578182fd5b8501601f81018713611daf578182fd5b611dbe87823560208401611c33565b91505092959194509250565b60008060408385031215611ddc578182fd5b611de583611ca3565b9150611d0d60208401611cba565b60008060408385031215611e05578182fd5b611e0e83611ca3565b946020939093013593505050565b600060208284031215611e2d578081fd5b61119f82611cba565b600060208284031215611e47578081fd5b813561119f81612754565b600060208284031215611e63578081fd5b815161119f81612754565b600060208284031215611e7f578081fd5b813567ffffffffffffffff811115611e95578182fd5b8201601f81018413611ea5578182fd5b6113f084823560208401611c33565b600060208284031215611ec5578081fd5b5035919050565b60008151808452611ee481602086016020860161267c565b601f01601f19169290920160200192915050565b60008351611f0a81846020880161267c565b835190830190611f1e81836020880161267c565b01949350505050565b6001600160a01b0391909116815260200190565b6001600160a01b0385811682528416602082015260408101839052608060608201819052600090611f6e90830184611ecc565b9695505050505050565b901515815260200190565b60006020825261119f6020830184611ecc565b6020808252602b908201527f455243373231456e756d657261626c653a206f776e657220696e646578206f7560408201526a74206f6620626f756e647360a81b606082015260800190565b60208082526032908201527f4552433732313a207472616e7366657220746f206e6f6e20455243373231526560408201527131b2b4bb32b91034b6b83632b6b2b73a32b960711b606082015260800190565b60208082526026908201527f4f776e61626c653a206e6577206f776e657220697320746865207a65726f206160408201526564647265737360d01b606082015260800190565b6020808252601c908201527f4552433732313a20746f6b656e20616c7265616479206d696e74656400000000604082015260600190565b6020808252602e908201527f507572636861736520776f756c6420657863656564206d617820737570706c7960408201526d081bd98815d85a599d55dbdc9b1960921b606082015260800190565b60208082526024908201527f4552433732313a207472616e7366657220746f20746865207a65726f206164646040820152637265737360e01b606082015260800190565b60208082526019908201527f4552433732313a20617070726f766520746f2063616c6c657200000000000000604082015260600190565b6020808252601f908201527f4d696e74206973206e6f7420617661696c61626c65207269676874206e6f7700604082015260600190565b6020808252602c908201527f4552433732313a206f70657261746f7220717565727920666f72206e6f6e657860408201526b34b9ba32b73a103a37b5b2b760a11b606082015260800190565b60208082526021908201527f43616e206f6e6c79206d696e7420323020746f6b656e7320617420612074696d6040820152606560f81b606082015260800190565b60208082526010908201526f151bdad95b881dd85cc81b5a5b9d195960821b604082015260600190565b602080825260149082015273151bdad95b881dd85cc81b9bdd081b5a5b9d195960621b604082015260600190565b60208082526038908201527f4552433732313a20617070726f76652063616c6c6572206973206e6f74206f7760408201527f6e6572206e6f7220617070726f76656420666f7220616c6c0000000000000000606082015260800190565b6020808252602a908201527f4552433732313a2062616c616e636520717565727920666f7220746865207a65604082015269726f206164647265737360b01b606082015260800190565b60208082526029908201527f4552433732313a206f776e657220717565727920666f72206e6f6e657869737460408201526832b73a103a37b5b2b760b91b606082015260800190565b60208082526019908201527f56616c75652073656e74206973206e6f7420636f727265637400000000000000604082015260600190565b6020808252818101527f4552433732313a206d696e7420746f20746865207a65726f2061646472657373604082015260600190565b6020808252602c908201527f4552433732313a20617070726f76656420717565727920666f72206e6f6e657860408201526b34b9ba32b73a103a37b5b2b760a11b606082015260800190565b6020808252818101527f4f776e61626c653a2063616c6c6572206973206e6f7420746865206f776e6572604082015260600190565b60208082526029908201527f4552433732313a207472616e73666572206f6620746f6b656e2074686174206960408201526839903737ba1037bbb760b91b606082015260800190565b6020808252602f908201527f4552433732314d657461646174613a2055524920717565727920666f72206e6f60408201526e3732bc34b9ba32b73a103a37b5b2b760891b606082015260800190565b60208082526021908201527f4552433732313a20617070726f76616c20746f2063757272656e74206f776e656040820152603960f91b606082015260800190565b60208082526031908201527f4552433732313a207472616e736665722063616c6c6572206973206e6f74206f6040820152701ddb995c881b9bdc88185c1c1c9bdd9959607a1b606082015260800190565b6020808252602c908201527f455243373231456e756d657261626c653a20676c6f62616c20696e646578206f60408201526b7574206f6620626f756e647360a01b606082015260800190565b9051815260200190565b90815260200190565b9283526001600160a01b03919091166020830152604082015260600190565b6000821982111561262d5761262d612712565b500190565b60008261264157612641612728565b500490565b600081600019048311821515161561266057612660612712565b500290565b60008282101561267757612677612712565b500390565b60005b8381101561269757818101518382015260200161267f565b83811115610b0f5750506000910152565b6002810460018216806126bc57607f821691505b602082108114156126dd57634e487b7160e01b600052602260045260246000fd5b50919050565b60006000198214156126f7576126f7612712565b5060010190565b60008261270d5761270d612728565b500690565b634e487b7160e01b600052601160045260246000fd5b634e487b7160e01b600052601260045260246000fd5b634e487b7160e01b600052604160045260246000fd5b6001600160e01b03198116811461276a57600080fd5b5056fea2646970667358221220a91c44b84fec40349fe4e209d530209eb9cda99cf99132d7f172fe70f5cbc86e64736f6c63430008000033",
  "linkReferences": {},
  "deployedLinkReferences": {}
}