{
  "_format": "hh-sol-artifact-1",
  "contractName": "Metadroids",
  "sourceName": "contracts/Metadroids.sol",
  "abi": [
    {
      "inputs": [
        {
          "internalType": "string",
          "name": "name",
          "type": "string"
        },
        {
          "internalType": "string",
          "name": "symbol",
          "type": "string"
        }
      ],
      "stateMutability": "nonpayable",
      "type": "constructor"
    },
    {
      "anonymous": false,
      "inputs": [
        {
          "indexed": true,
          "internalType": "address",
          "name": "owner",
          "type": "address"
        },
        {
          "indexed": true,
          "internalType": "address",
          "name": "approved",
          "type": "address"
        },
        {
          "indexed": true,
          "internalType": "uint256",
          "name": "tokenId",
          "type": "uint256"
        }
      ],
      "name": "Approval",
      "type": "event"
    },
    {
      "anonymous": false,
      "inputs": [
        {
          "indexed": true,
          "internalType": "address",
          "name": "owner",
          "type": "address"
        },
        {
          "indexed": true,
          "internalType": "address",
          "name": "operator",
          "type": "address"
        },
        {
          "indexed": false,
          "internalType": "bool",
          "name": "approved",
          "type": "bool"
        }
      ],
      "name": "ApprovalForAll",
      "type": "event"
    },
    {
      "anonymous": false,
      "inputs": [
        {
          "indexed": true,
          "internalType": "address",
          "name": "previousOwner",
          "type": "address"
        },
        {
          "indexed": true,
          "internalType": "address",
          "name": "newOwner",
          "type": "address"
        }
      ],
      "name": "OwnershipTransferred",
      "type": "event"
    },
    {
      "anonymous": false,
      "inputs": [
        {
          "indexed": false,
          "internalType": "uint256",
          "name": "tokenId",
          "type": "uint256"
        },
        {
          "indexed": false,
          "internalType": "address",
          "name": "owner",
          "type": "address"
        },
        {
          "indexed": false,
          "internalType": "uint256",
          "name": "first_encounter",
          "type": "uint256"
        }
      ],
      "name": "TokenMinted",
      "type": "event"
    },
    {
      "anonymous": false,
      "inputs": [
        {
          "indexed": true,
          "internalType": "address",
          "name": "from",
          "type": "address"
        },
        {
          "indexed": true,
          "internalType": "address",
          "name": "to",
          "type": "address"
        },
        {
          "indexed": true,
          "internalType": "uint256",
          "name": "tokenId",
          "type": "uint256"
        }
      ],
      "name": "Transfer",
      "type": "event"
    },
    {
      "inputs": [],
      "name": "CURRENT_PRICE",
      "outputs": [
        {
          "internalType": "uint256",
          "name": "",
          "type": "uint256"
        }
      ],
      "stateMutability": "view",
      "type": "function"
    },
    {
      "inputs": [],
      "name": "MAX_PURCHASE",
      "outputs": [
        {
          "internalType": "uint256",
          "name": "",
          "type": "uint256"
        }
      ],
      "stateMutability": "view",
      "type": "function"
    },
    {
      "inputs": [],
      "name": "MAX_TOKENS",
      "outputs": [
        {
          "internalType": "uint256",
          "name": "",
          "type": "uint256"
        }
      ],
      "stateMutability": "view",
      "type": "function"
    },
    {
      "inputs": [],
      "name": "PROVENANCE",
      "outputs": [
        {
          "internalType": "string",
          "name": "",
          "type": "string"
        }
      ],
      "stateMutability": "view",
      "type": "function"
    },
    {
      "inputs": [
        {
          "internalType": "address",
          "name": "to",
          "type": "address"
        },
        {
          "internalType": "uint256",
          "name": "tokenId",
          "type": "uint256"
        }
      ],
      "name": "approve",
      "outputs": [],
      "stateMutability": "nonpayable",
      "type": "function"
    },
    {
      "inputs": [
        {
          "internalType": "address",
          "name": "owner",
          "type": "address"
        }
      ],
      "name": "balanceOf",
      "outputs": [
        {
          "internalType": "uint256",
          "name": "",
          "type": "uint256"
        }
      ],
      "stateMutability": "view",
      "type": "function"
    },
    {
      "inputs": [
        {
          "internalType": "uint256",
          "name": "tokenId",
          "type": "uint256"
        }
      ],
      "name": "getApproved",
      "outputs": [
        {
          "internalType": "address",
          "name": "",
          "type": "address"
        }
      ],
      "stateMutability": "view",
      "type": "function"
    },
    {
      "inputs": [
        {
          "internalType": "uint256",
          "name": "tokenId",
          "type": "uint256"
        }
      ],
      "name": "getMetadroidsDetail",
      "outputs": [
        {
          "components": [
            {
              "internalType": "uint256",
              "name": "first_encounter",
              "type": "uint256"
            }
          ],
          "internalType": "struct Metadroids.MetadroidsDetail",
          "name": "detail",
          "type": "tuple"
        }
      ],
      "stateMutability": "view",
      "type": "function"
    },
    {
      "inputs": [
        {
          "internalType": "address",
          "name": "owner",
          "type": "address"
        },
        {
          "internalType": "address",
          "name": "operator",
          "type": "address"
        }
      ],
      "name": "isApprovedForAll",
      "outputs": [
        {
          "internalType": "bool",
          "name": "",
          "type": "bool"
        }
      ],
      "stateMutability": "view",
      "type": "function"
    },
    {
      "inputs": [
        {
          "internalType": "uint256",
          "name": "numberOfTokens",
          "type": "uint256"
        }
      ],
      "name": "mintMetadroids",
      "outputs": [],
      "stateMutability": "payable",
      "type": "function"
    },
    {
      "inputs": [
        {
          "internalType": "uint256",
          "name": "tokenId",
          "type": "uint256"
        }
      ],
      "name": "mintTokenId",
      "outputs": [],
      "stateMutability": "nonpayable",
      "type": "function"
    },
    {
      "inputs": [],
      "name": "name",
      "outputs": [
        {
          "internalType": "string",
          "name": "",
          "type": "string"
        }
      ],
      "stateMutability": "view",
      "type": "function"
    },
    {
      "inputs": [],
      "name": "owner",
      "outputs": [
        {
          "internalType": "address",
          "name": "",
          "type": "address"
        }
      ],
      "stateMutability": "view",
      "type": "function"
    },
    {
      "inputs": [
        {
          "internalType": "uint256",
          "name": "tokenId",
          "type": "uint256"
        }
      ],
      "name": "ownerOf",
      "outputs": [
        {
          "internalType": "address",
          "name": "",
          "type": "address"
        }
      ],
      "stateMutability": "view",
      "type": "function"
    },
    {
      "inputs": [],
      "name": "renounceOwnership",
      "outputs": [],
      "stateMutability": "nonpayable",
      "type": "function"
    },
    {
      "inputs": [],
      "name": "reserveTokens",
      "outputs": [],
      "stateMutability": "nonpayable",
      "type": "function"
    },
    {
      "inputs": [
        {
          "internalType": "address",
          "name": "from",
          "type": "address"
        },
        {
          "internalType": "address",
          "name": "to",
          "type": "address"
        },
        {
          "internalType": "uint256",
          "name": "tokenId",
          "type": "uint256"
        }
      ],
      "name": "safeTransferFrom",
      "outputs": [],
      "stateMutability": "nonpayable",
      "type": "function"
    },
    {
      "inputs": [
        {
          "internalType": "address",
          "name": "from",
          "type": "address"
        },
        {
          "internalType": "address",
          "name": "to",
          "type": "address"
        },
        {
          "internalType": "uint256",
          "name": "tokenId",
          "type": "uint256"
        },
        {
          "internalType": "bytes",
          "name": "_data",
          "type": "bytes"
        }
      ],
      "name": "safeTransferFrom",
      "outputs": [],
      "stateMutability": "nonpayable",
      "type": "function"
    },
    {
      "inputs": [],
      "name": "saleIsActive",
      "outputs": [
        {
          "internalType": "bool",
          "name": "",
          "type": "bool"
        }
      ],
      "stateMutability": "view",
      "type": "function"
    },
    {
      "inputs": [
        {
          "internalType": "address",
          "name": "operator",
          "type": "address"
        },
        {
          "internalType": "bool",
          "name": "approved",
          "type": "bool"
        }
      ],
      "name": "setApprovalForAll",
      "outputs": [],
      "stateMutability": "nonpayable",
      "type": "function"
    },
    {
      "inputs": [
        {
          "internalType": "string",
          "name": "BaseURI",
          "type": "string"
        }
      ],
      "name": "setBaseURI",
      "outputs": [],
      "stateMutability": "nonpayable",
      "type": "function"
    },
    {
      "inputs": [
        {
          "internalType": "uint256",
          "name": "currentPrice",
          "type": "uint256"
        }
      ],
      "name": "setCurrentPrice",
      "outputs": [],
      "stateMutability": "nonpayable",
      "type": "function"
    },
    {
      "inputs": [
        {
          "internalType": "uint256",
          "name": "maxTokens",
          "type": "uint256"
        }
      ],
      "name": "setMaxTokens",
      "outputs": [],
      "stateMutability": "nonpayable",
      "type": "function"
    },
    {
      "inputs": [
        {
          "internalType": "string",
          "name": "provenanceHash",
          "type": "string"
        }
      ],
      "name": "setProvenanceHash",
      "outputs": [],
      "stateMutability": "nonpayable",
      "type": "function"
    },
    {
      "inputs": [
        {
          "internalType": "bool",
          "name": "newState",
          "type": "bool"
        }
      ],
      "name": "setSaleState",
      "outputs": [],
      "stateMutability": "nonpayable",
      "type": "function"
    },
    {
      "inputs": [
        {
          "internalType": "bytes4",
          "name": "interfaceId",
          "type": "bytes4"
        }
      ],
      "name": "supportsInterface",
      "outputs": [
        {
          "internalType": "bool",
          "name": "",
          "type": "bool"
        }
      ],
      "stateMutability": "view",
      "type": "function"
    },
    {
      "inputs": [],
      "name": "symbol",
      "outputs": [
        {
          "internalType": "string",
          "name": "",
          "type": "string"
        }
      ],
      "stateMutability": "view",
      "type": "function"
    },
    {
      "inputs": [
        {
          "internalType": "uint256",
          "name": "index",
          "type": "uint256"
        }
      ],
      "name": "tokenByIndex",
      "outputs": [
        {
          "internalType": "uint256",
          "name": "",
          "type": "uint256"
        }
      ],
      "stateMutability": "view",
      "type": "function"
    },
    {
      "inputs": [
        {
          "internalType": "address",
          "name": "owner",
          "type": "address"
        },
        {
          "internalType": "uint256",
          "name": "index",
          "type": "uint256"
        }
      ],
      "name": "tokenOfOwnerByIndex",
      "outputs": [
        {
          "internalType": "uint256",
          "name": "",
          "type": "uint256"
        }
      ],
      "stateMutability": "view",
      "type": "function"
    },
    {
      "inputs": [
        {
          "internalType": "uint256",
          "name": "tokenId",
          "type": "uint256"
        }
      ],
      "name": "tokenURI",
      "outputs": [
        {
          "internalType": "string",
          "name": "",
          "type": "string"
        }
      ],
      "stateMutability": "view",
      "type": "function"
    },
    {
      "inputs": [],
      "name": "totalSupply",
      "outputs": [
        {
          "internalType": "uint256",
          "name": "",
          "type": "uint256"
        }
      ],
      "stateMutability": "view",
      "type": "function"
    },
    {
      "inputs": [
        {
          "internalType": "address",
          "name": "from",
          "type": "address"
        },
        {
          "internalType": "address",
          "name": "to",
          "type": "address"
        },
        {
          "internalType": "uint256",
          "name": "tokenId",
          "type": "uint256"
        }
      ],
      "name": "transferFrom",
      "outputs": [],
      "stateMutability": "nonpayable",
      "type": "function"
    },
    {
      "inputs": [
        {
          "internalType": "address",
          "name": "newOwner",
          "type": "address"
        }
      ],
      "name": "transferOwnership",
      "outputs": [],
      "stateMutability": "nonpayable",
      "type": "function"
    },
    {
      "inputs": [],
      "name": "withdraw",
      "outputs": [],
      "stateMutability": "nonpayable",
      "type": "function"
    }
  ],
  "bytecode": "0x60a06040819052600060808190526200001b91600c916200010d565b506014600d55611f40600e5566b1a2bc2ec50000600f556010805460ff191660011790553480156200004c57600080fd5b5060405162002a1938038062002a198339810160408190526200006f916200025e565b815182908290620000889060009060208501906200010d565b5080516200009e9060019060208401906200010d565b5050506000620000b36200010960201b60201c565b600a80546001600160a01b0319166001600160a01b038316908117909155604051919250906000907f8be0079c531659141344cd1fd0a4f28419497f9722a3daafe3b4186f6b6457e0908290a350505062000318565b3390565b8280546200011b90620002c5565b90600052602060002090601f0160209004810192826200013f57600085556200018a565b82601f106200015a57805160ff19168380011785556200018a565b828001600101855582156200018a579182015b828111156200018a5782518255916020019190600101906200016d565b50620001989291506200019c565b5090565b5b808211156200019857600081556001016200019d565b600082601f830112620001c4578081fd5b81516001600160401b0380821115620001e157620001e162000302565b6040516020601f8401601f191682018101838111838210171562000209576200020962000302565b604052838252858401810187101562000220578485fd5b8492505b8383101562000243578583018101518284018201529182019162000224565b838311156200025457848185840101525b5095945050505050565b6000806040838503121562000271578182fd5b82516001600160401b038082111562000288578384fd5b6200029686838701620001b3565b93506020850151915080821115620002ac578283fd5b50620002bb85828601620001b3565b9150509250929050565b600281046001821680620002da57607f821691505b60208210811415620002fc57634e487b7160e01b600052602260045260246000fd5b50919050565b634e487b7160e01b600052604160045260246000fd5b6126f180620003286000396000f3fe6080604052600436106101f95760003560e01c80636352211e1161010d57806395d89b41116100a0578063c87b56dd1161006f578063c87b56dd1461056f578063e985e9c51461058f578063eb8d2444146105af578063f2fde38b146105c4578063f47c84c5146105e4576101f9565b806395d89b41146104fa578063a22cb4651461050f578063b88d4fde1461052f578063c4e370951461054f576101f9565b8063715018a6116100dc578063715018a614610490578063797ab073146104a557806384cbdf26146104b85780638da5cb5b146104e5576101f9565b80636352211e146104265780636373a6b11461044657806370a082311461045b5780637146bd081461047b576101f9565b806323b872dd116101905780633ccfd60b1161015f5780633ccfd60b1461039c57806342842e0e146103b15780634b369a61146103d15780634f6ccce7146103e657806355f804b314610406576101f9565b806323b872dd146103275780632429467b1461034757806327ac36c4146103675780632f745c591461037c576101f9565b806310969523116101cc57806310969523146102a557806311e776fe146102c557806318160ddd146102e557806318b2007114610307576101f9565b806301ffc9a7146101fe57806306fdde0314610234578063081812fc14610256578063095ea7b314610283575b600080fd5b34801561020a57600080fd5b5061021e610219366004611d84565b6105f9565b60405161022b9190611ec6565b60405180910390f35b34801561024057600080fd5b50610249610626565b60405161022b9190611ed1565b34801561026257600080fd5b50610276610271366004611e02565b6106b8565b60405161022b9190611e75565b34801561028f57600080fd5b506102a361029e366004611d41565b610704565b005b3480156102b157600080fd5b506102a36102c0366004611dbc565b61079c565b3480156102d157600080fd5b506102a36102e0366004611e02565b6107f2565b3480156102f157600080fd5b506102fa610836565b60405161022b9190612540565b34801561031357600080fd5b506102a3610322366004611e02565b61083c565b34801561033357600080fd5b506102a3610342366004611c64565b610880565b34801561035357600080fd5b506102a3610362366004611e02565b6108b8565b34801561037357600080fd5b506102a3610985565b34801561038857600080fd5b506102fa610397366004611d41565b610a48565b3480156103a857600080fd5b506102a3610a9a565b3480156103bd57600080fd5b506102a36103cc366004611c64565b610b08565b3480156103dd57600080fd5b506102fa610b23565b3480156103f257600080fd5b506102fa610401366004611e02565b610b29565b34801561041257600080fd5b506102a3610421366004611dbc565b610b84565b34801561043257600080fd5b50610276610441366004611e02565b610bd6565b34801561045257600080fd5b50610249610c0b565b34801561046757600080fd5b506102fa610476366004611c18565b610c99565b34801561048757600080fd5b506102fa610cdd565b34801561049c57600080fd5b506102a3610ce3565b6102a36104b3366004611e02565b610d6c565b3480156104c457600080fd5b506104d86104d3366004611e02565b610eab565b60405161022b9190612536565b3480156104f157600080fd5b50610276610efa565b34801561050657600080fd5b50610249610f09565b34801561051b57600080fd5b506102a361052a366004611d18565b610f18565b34801561053b57600080fd5b506102a361054a366004611c9f565b610fe6565b34801561055b57600080fd5b506102a361056a366004611d6a565b61101f565b34801561057b57600080fd5b5061024961058a366004611e02565b611071565b34801561059b57600080fd5b5061021e6105aa366004611c32565b6110f4565b3480156105bb57600080fd5b5061021e611122565b3480156105d057600080fd5b506102a36105df366004611c18565b61112b565b3480156105f057600080fd5b506102fa6111ec565b60006001600160e01b0319821663780e9d6360e01b148061061e575061061e826111f2565b90505b919050565b606060008054610635906125f6565b80601f0160208091040260200160405190810160405280929190818152602001828054610661906125f6565b80156106ae5780601f10610683576101008083540402835291602001916106ae565b820191906000526020600020905b81548152906001019060200180831161069157829003601f168201915b5050505050905090565b60006106c382611232565b6106e85760405162461bcd60e51b81526004016106df906122f1565b60405180910390fd5b506000908152600460205260409020546001600160a01b031690565b600061070f82610bd6565b9050806001600160a01b0316836001600160a01b031614156107435760405162461bcd60e51b81526004016106df9061240a565b806001600160a01b031661075561124f565b6001600160a01b031614806107715750610771816105aa61124f565b61078d5760405162461bcd60e51b81526004016106df90612195565b6107978383611253565b505050565b6107a461124f565b6001600160a01b03166107b5610efa565b6001600160a01b0316146107db5760405162461bcd60e51b81526004016106df9061233d565b80516107ee90600c906020840190611ad5565b5050565b6107fa61124f565b6001600160a01b031661080b610efa565b6001600160a01b0316146108315760405162461bcd60e51b81526004016106df9061233d565b600e55565b60085490565b61084461124f565b6001600160a01b0316610855610efa565b6001600160a01b03161461087b5760405162461bcd60e51b81526004016106df9061233d565b600f55565b61089161088b61124f565b826112c1565b6108ad5760405162461bcd60e51b81526004016106df9061244b565b610797838383611346565b6108c061124f565b6001600160a01b03166108d1610efa565b6001600160a01b0316146108f75760405162461bcd60e51b81526004016106df9061233d565b61090081611232565b1561091d5760405162461bcd60e51b81526004016106df9061213d565b426109283383611473565b60408051602080820183528382526000858152600b90915282902090519055517f2d03118aa776f7008445f6ca8490a6782ede2db364d741513555ba656ab1879f9061097990849033908590612549565b60405180910390a15050565b61098d61124f565b6001600160a01b031661099e610efa565b6001600160a01b0316146109c45760405162461bcd60e51b81526004016106df9061233d565b60016000425b60328311610797576109e560016109df610836565b9061148d565b9150600e548211610a36576109fa3383611473565b7f2d03118aa776f7008445f6ca8490a6782ede2db364d741513555ba656ab1879f823383604051610a2d93929190612549565b60405180910390a15b82610a4081612631565b9350506109ca565b6000610a5383610c99565b8210610a715760405162461bcd60e51b81526004016106df90611ee4565b506001600160a01b03919091166000908152600660209081526040808320938352929052205490565b610aa261124f565b6001600160a01b0316610ab3610efa565b6001600160a01b031614610ad95760405162461bcd60e51b81526004016106df9061233d565b6040514790339082156108fc029083906000818181858888f193505050501580156107ee573d6000803e3d6000fd5b61079783838360405180602001604052806000815250610fe6565b600f5481565b6000610b33610836565b8210610b515760405162461bcd60e51b81526004016106df9061249c565b60088281548110610b7257634e487b7160e01b600052603260045260246000fd5b90600052602060002001549050919050565b610b8c61124f565b6001600160a01b0316610b9d610efa565b6001600160a01b031614610bc35760405162461bcd60e51b81526004016106df9061233d565b80516107ee906011906020840190611ad5565b6000818152600260205260408120546001600160a01b03168061061e5760405162461bcd60e51b81526004016106df9061223c565b600c8054610c18906125f6565b80601f0160208091040260200160405190810160405280929190818152602001828054610c44906125f6565b8015610c915780601f10610c6657610100808354040283529160200191610c91565b820191906000526020600020905b815481529060010190602001808311610c7457829003601f168201915b505050505081565b60006001600160a01b038216610cc15760405162461bcd60e51b81526004016106df906121f2565b506001600160a01b031660009081526003602052604090205490565b600d5481565b610ceb61124f565b6001600160a01b0316610cfc610efa565b6001600160a01b031614610d225760405162461bcd60e51b81526004016106df9061233d565b600a546040516000916001600160a01b0316907f8be0079c531659141344cd1fd0a4f28419497f9722a3daafe3b4186f6b6457e0908390a3600a80546001600160a01b0319169055565b60105460ff16610d8e5760405162461bcd60e51b81526004016106df90612079565b600d54811115610db05760405162461bcd60e51b81526004016106df906120fc565b600e54610dbf826109df610836565b1115610ddd5760405162461bcd60e51b81526004016106df906124e8565b600f543490610dec9083611499565b1115610e0a5760405162461bcd60e51b81526004016106df90612285565b42600060015b838111610ea557610e2460016109df610836565b9150600e548211610e9357610e393383611473565b60408051602080820183528582526000858152600b90915282902090519055517f2d03118aa776f7008445f6ca8490a6782ede2db364d741513555ba656ab1879f90610e8a90849033908790612549565b60405180910390a15b80610e9d81612631565b915050610e10565b50505050565b610eb3611b59565b610ebc82611232565b610ed85760405162461bcd60e51b81526004016106df90612167565b506000908152600b602090815260409182902082519182019092529054815290565b600a546001600160a01b031690565b606060018054610635906125f6565b610f2061124f565b6001600160a01b0316826001600160a01b03161415610f515760405162461bcd60e51b81526004016106df90612042565b8060056000610f5e61124f565b6001600160a01b03908116825260208083019390935260409182016000908120918716808252919093529120805460ff191692151592909217909155610fa261124f565b6001600160a01b03167f17307eab39ab6107e8899845ad3d59bd9653f200f220920489ca2b5937696c3183604051610fda9190611ec6565b60405180910390a35050565b610ff7610ff161124f565b836112c1565b6110135760405162461bcd60e51b81526004016106df9061244b565b610ea5848484846114a5565b61102761124f565b6001600160a01b0316611038610efa565b6001600160a01b03161461105e5760405162461bcd60e51b81526004016106df9061233d565b6010805460ff1916911515919091179055565b606061107c82611232565b6110985760405162461bcd60e51b81526004016106df906123bb565b60006110a26114d8565b905060008151116110c257604051806020016040528060008152506110ed565b806110cc846114e7565b6040516020016110dd929190611e46565b6040516020818303038152906040525b9392505050565b6001600160a01b03918216600090815260056020908152604080832093909416825291909152205460ff1690565b60105460ff1681565b61113361124f565b6001600160a01b0316611144610efa565b6001600160a01b03161461116a5760405162461bcd60e51b81526004016106df9061233d565b6001600160a01b0381166111905760405162461bcd60e51b81526004016106df90611f81565b600a546040516001600160a01b038084169216907f8be0079c531659141344cd1fd0a4f28419497f9722a3daafe3b4186f6b6457e090600090a3600a80546001600160a01b0319166001600160a01b0392909216919091179055565b600e5481565b60006001600160e01b031982166380ac58cd60e01b148061122357506001600160e01b03198216635b5e139f60e01b145b8061061e575061061e82611602565b6000908152600260205260409020546001600160a01b0316151590565b3390565b600081815260046020526040902080546001600160a01b0319166001600160a01b038416908117909155819061128882610bd6565b6001600160a01b03167f8c5be1e5ebec7d5bd14f71427d1e84f3dd0314c0f7b2291e5b200ac8c7c3b92560405160405180910390a45050565b60006112cc82611232565b6112e85760405162461bcd60e51b81526004016106df906120b0565b60006112f383610bd6565b9050806001600160a01b0316846001600160a01b0316148061132e5750836001600160a01b0316611323846106b8565b6001600160a01b0316145b8061133e575061133e81856110f4565b949350505050565b826001600160a01b031661135982610bd6565b6001600160a01b03161461137f5760405162461bcd60e51b81526004016106df90612372565b6001600160a01b0382166113a55760405162461bcd60e51b81526004016106df90611ffe565b6113b083838361161b565b6113bb600082611253565b6001600160a01b03831660009081526003602052604081208054600192906113e49084906125b3565b90915550506001600160a01b0382166000908152600360205260408120805460019290611412908490612568565b909155505060008181526002602052604080822080546001600160a01b0319166001600160a01b0386811691821790925591518493918716917fddf252ad1be2c89b69c2b068fc378daa952ba7f163c4a11628f55a4df523b3ef91a4505050565b6107ee8282604051806020016040528060008152506116a4565b60006110ed8284612568565b60006110ed8284612594565b6114b0848484611346565b6114bc848484846116d7565b610ea55760405162461bcd60e51b81526004016106df90611f2f565b606060118054610635906125f6565b60608161150c57506040805180820190915260018152600360fc1b6020820152610621565b8160005b8115611536578061152081612631565b915061152f9050600a83612580565b9150611510565b60008167ffffffffffffffff81111561155f57634e487b7160e01b600052604160045260246000fd5b6040519080825280601f01601f191660200182016040528015611589576020820181803683370190505b5090505b841561133e5761159e6001836125b3565b91506115ab600a8661264c565b6115b6906030612568565b60f81b8183815181106115d957634e487b7160e01b600052603260045260246000fd5b60200101906001600160f81b031916908160001a9053506115fb600a86612580565b945061158d565b6001600160e01b031981166301ffc9a760e01b14919050565b611626838383610797565b6001600160a01b0383166116425761163d816117f2565b611665565b816001600160a01b0316836001600160a01b031614611665576116658382611836565b6001600160a01b0382166116815761167c816118d3565b610797565b826001600160a01b0316826001600160a01b0316146107975761079782826119ac565b6116ae83836119f0565b6116bb60008484846116d7565b6107975760405162461bcd60e51b81526004016106df90611f2f565b60006116eb846001600160a01b0316611acf565b156117e757836001600160a01b031663150b7a0261170761124f565b8786866040518563ffffffff1660e01b81526004016117299493929190611e89565b602060405180830381600087803b15801561174357600080fd5b505af1925050508015611773575060408051601f3d908101601f1916820190925261177091810190611da0565b60015b6117cd573d8080156117a1576040519150601f19603f3d011682016040523d82523d6000602084013e6117a6565b606091505b5080516117c55760405162461bcd60e51b81526004016106df90611f2f565b805181602001fd5b6001600160e01b031916630a85bd0160e11b14905061133e565b506001949350505050565b600880546000838152600960205260408120829055600182018355919091527ff3f7a9fe364faab93b216da50a3214154f22a0a2b415b23a84c8169e8b636ee30155565b6000600161184384610c99565b61184d91906125b3565b6000838152600760205260409020549091508082146118a0576001600160a01b03841660009081526006602090815260408083208584528252808320548484528184208190558352600790915290208190555b5060009182526007602090815260408084208490556001600160a01b039094168352600681528383209183525290812055565b6008546000906118e5906001906125b3565b6000838152600960205260408120546008805493945090928490811061191b57634e487b7160e01b600052603260045260246000fd5b90600052602060002001549050806008838154811061194a57634e487b7160e01b600052603260045260246000fd5b600091825260208083209091019290925582815260099091526040808220849055858252812055600880548061199057634e487b7160e01b600052603160045260246000fd5b6001900381819060005260206000200160009055905550505050565b60006119b783610c99565b6001600160a01b039093166000908152600660209081526040808320868452825280832085905593825260079052919091209190915550565b6001600160a01b038216611a165760405162461bcd60e51b81526004016106df906122bc565b611a1f81611232565b15611a3c5760405162461bcd60e51b81526004016106df90611fc7565b611a486000838361161b565b6001600160a01b0382166000908152600360205260408120805460019290611a71908490612568565b909155505060008181526002602052604080822080546001600160a01b0319166001600160a01b03861690811790915590518392907fddf252ad1be2c89b69c2b068fc378daa952ba7f163c4a11628f55a4df523b3ef908290a45050565b3b151590565b828054611ae1906125f6565b90600052602060002090601f016020900481019282611b035760008555611b49565b82601f10611b1c57805160ff1916838001178555611b49565b82800160010185558215611b49579182015b82811115611b49578251825591602001919060010190611b2e565b50611b55929150611b6c565b5090565b6040518060200160405280600081525090565b5b80821115611b555760008155600101611b6d565b600067ffffffffffffffff80841115611b9c57611b9c61268c565b604051601f8501601f191681016020018281118282101715611bc057611bc061268c565b604052848152915081838501861015611bd857600080fd5b8484602083013760006020868301015250509392505050565b80356001600160a01b038116811461062157600080fd5b8035801515811461062157600080fd5b600060208284031215611c29578081fd5b6110ed82611bf1565b60008060408385031215611c44578081fd5b611c4d83611bf1565b9150611c5b60208401611bf1565b90509250929050565b600080600060608486031215611c78578081fd5b611c8184611bf1565b9250611c8f60208501611bf1565b9150604084013590509250925092565b60008060008060808587031215611cb4578081fd5b611cbd85611bf1565b9350611ccb60208601611bf1565b925060408501359150606085013567ffffffffffffffff811115611ced578182fd5b8501601f81018713611cfd578182fd5b611d0c87823560208401611b81565b91505092959194509250565b60008060408385031215611d2a578182fd5b611d3383611bf1565b9150611c5b60208401611c08565b60008060408385031215611d53578182fd5b611d5c83611bf1565b946020939093013593505050565b600060208284031215611d7b578081fd5b6110ed82611c08565b600060208284031215611d95578081fd5b81356110ed816126a2565b600060208284031215611db1578081fd5b81516110ed816126a2565b600060208284031215611dcd578081fd5b813567ffffffffffffffff811115611de3578182fd5b8201601f81018413611df3578182fd5b61133e84823560208401611b81565b600060208284031215611e13578081fd5b5035919050565b60008151808452611e328160208601602086016125ca565b601f01601f19169290920160200192915050565b60008351611e588184602088016125ca565b835190830190611e6c8183602088016125ca565b01949350505050565b6001600160a01b0391909116815260200190565b6001600160a01b0385811682528416602082015260408101839052608060608201819052600090611ebc90830184611e1a565b9695505050505050565b901515815260200190565b6000602082526110ed6020830184611e1a565b6020808252602b908201527f455243373231456e756d657261626c653a206f776e657220696e646578206f7560408201526a74206f6620626f756e647360a81b606082015260800190565b60208082526032908201527f4552433732313a207472616e7366657220746f206e6f6e20455243373231526560408201527131b2b4bb32b91034b6b83632b6b2b73a32b960711b606082015260800190565b60208082526026908201527f4f776e61626c653a206e6577206f776e657220697320746865207a65726f206160408201526564647265737360d01b606082015260800190565b6020808252601c908201527f4552433732313a20746f6b656e20616c7265616479206d696e74656400000000604082015260600190565b60208082526024908201527f4552433732313a207472616e7366657220746f20746865207a65726f206164646040820152637265737360e01b606082015260800190565b60208082526019908201527f4552433732313a20617070726f766520746f2063616c6c657200000000000000604082015260600190565b6020808252601f908201527f4d696e74206973206e6f7420617661696c61626c65207269676874206e6f7700604082015260600190565b6020808252602c908201527f4552433732313a206f70657261746f7220717565727920666f72206e6f6e657860408201526b34b9ba32b73a103a37b5b2b760a11b606082015260800190565b60208082526021908201527f43616e206f6e6c79206d696e7420323020746f6b656e7320617420612074696d6040820152606560f81b606082015260800190565b60208082526010908201526f151bdad95b881dd85cc81b5a5b9d195960821b604082015260600190565b602080825260149082015273151bdad95b881dd85cc81b9bdd081b5a5b9d195960621b604082015260600190565b60208082526038908201527f4552433732313a20617070726f76652063616c6c6572206973206e6f74206f7760408201527f6e6572206e6f7220617070726f76656420666f7220616c6c0000000000000000606082015260800190565b6020808252602a908201527f4552433732313a2062616c616e636520717565727920666f7220746865207a65604082015269726f206164647265737360b01b606082015260800190565b60208082526029908201527f4552433732313a206f776e657220717565727920666f72206e6f6e657869737460408201526832b73a103a37b5b2b760b91b606082015260800190565b60208082526019908201527f56616c75652073656e74206973206e6f7420636f727265637400000000000000604082015260600190565b6020808252818101527f4552433732313a206d696e7420746f20746865207a65726f2061646472657373604082015260600190565b6020808252602c908201527f4552433732313a20617070726f76656420717565727920666f72206e6f6e657860408201526b34b9ba32b73a103a37b5b2b760a11b606082015260800190565b6020808252818101527f4f776e61626c653a2063616c6c6572206973206e6f7420746865206f776e6572604082015260600190565b60208082526029908201527f4552433732313a207472616e73666572206f6620746f6b656e2074686174206960408201526839903737ba1037bbb760b91b606082015260800190565b6020808252602f908201527f4552433732314d657461646174613a2055524920717565727920666f72206e6f60408201526e3732bc34b9ba32b73a103a37b5b2b760891b606082015260800190565b60208082526021908201527f4552433732313a20617070726f76616c20746f2063757272656e74206f776e656040820152603960f91b606082015260800190565b60208082526031908201527f4552433732313a207472616e736665722063616c6c6572206973206e6f74206f6040820152701ddb995c881b9bdc88185c1c1c9bdd9959607a1b606082015260800190565b6020808252602c908201527f455243373231456e756d657261626c653a20676c6f62616c20696e646578206f60408201526b7574206f6620626f756e647360a01b606082015260800190565b6020808252602e908201527f507572636861736520776f756c6420657863656564206d617820737570706c7960408201526d206f66204d65746164726f69647360901b606082015260800190565b9051815260200190565b90815260200190565b9283526001600160a01b03919091166020830152604082015260600190565b6000821982111561257b5761257b612660565b500190565b60008261258f5761258f612676565b500490565b60008160001904831182151516156125ae576125ae612660565b500290565b6000828210156125c5576125c5612660565b500390565b60005b838110156125e55781810151838201526020016125cd565b83811115610ea55750506000910152565b60028104600182168061260a57607f821691505b6020821081141561262b57634e487b7160e01b600052602260045260246000fd5b50919050565b600060001982141561264557612645612660565b5060010190565b60008261265b5761265b612676565b500690565b634e487b7160e01b600052601160045260246000fd5b634e487b7160e01b600052601260045260246000fd5b634e487b7160e01b600052604160045260246000fd5b6001600160e01b0319811681146126b857600080fd5b5056fea2646970667358221220934fad8ea28d1357c0c0173078a664c4d0553f4bcc4df3f8d303ce406420c8cd64736f6c63430008000033",
  "linkReferences": {},
  "deployedLinkReferences": {}
}